:1000000000308A00262800002830840000080319E8
:1000100016280630A100A001A00B0C28A10B0B286C
:100020007B30A000A00B1228800B09288A114128E0
:1000300064008C1E18281808A5001A08A100A51C29
:1000400023281812181600008A11562884011F3020
:100050008305A50120308316990022309800903046
:10006000831298008510831685108312DF30670095
:10007000071E4428DF306700871A44280330A80091
:1000800004288716DF306700DF306700071A4F2823
:10009000DF306700871E4F288712DF3067008C1E15
:1000A0008F28DF306700871E8F2818282108A700B7
:1000B0008510831685108312831605148312051884
:1000C0005C28831605148312051C6128A6010830DC
:1000D0002602031881280310A70C03187128851025
:1000E00072288514831685108312831605148312D3
:1000F00005187528831605148312051C7A28A60A8C
:1001000067288514831685108312831605148312BD
:1001100005188528831605148312051C8A2836289D
:0201200063007A
:00000001FF
;PIC16C63A
